:0300000002069D58
:0C069D00787FE4F6D8FD75813A0206E48F
:05097200000000000080
:0A0957000108000519525332333233
:10090400D3EF9400EE9400400DE4FD0DBD1BFCEF0D
:060914001F70ED1E80EAD9
:01091A0022BA
:0C0932001530153015301530153015301B
:01093E002296
:10079C00E4FF75110220A007AE110511EE70F612E0
:1007AC000932120932120932E4F51630A00375161B
:1007BC000175110230A007AE110511EE70F6E511AE
:1007CC006401600EE52125E0F521E51642210FBFFD
:0207DC0008C053
:0107DE0022F8
:10072900C2A07FB47E00120904D2A01209321209B4
:1007390032120932120932D2A020A05675110220B4
:10074900A007AF110511EF70F675110230A007AFC0
:10075900110511EF70F612079C85211E12079C8561
:10076900211F12079C85210B12079C85210C12075A
:100779009C852115D2A0E50B250C251E251FF516F4
:10078900B5150F851E17851F18850B09850C0A8558
:0307990015132213
:10057800758920758DFD758BFDD28ED2AF1208C896
:100588007F8812093F7F4312094BC2907FF47E0196
:10059800120904D29012091B12044F7F647E0012C4
:1005A800090412072985181AE509F52CE50AF52D1D
:1005B800852C2E852D2FAC2EAD2FE4120206E4FBE0
:1005C800FA79C878401200FBE4FBFAF9783F120088
:1005D8000A12023F8E2C8F2D7C277D101203B68FB6
:1005E80019AE2CAF2D7C277D101203B67E037FE851
:1005F800CFCDCFCECCCE1203B68F1AAE2CAF2D7C7A
:10060800037DE81203B67E007F64CFCDCFCECCCE7B
:100618001203B68F1BAE2CAF2D7C007D641203B67F
:100628007E007F0ACFCDCFCECCCE1203B68F1C7FF3
:10063800C012093F7F5312094B7FC112093F7F4403
:1006480012094B7FC212093F7F3A12094B7FC3122E
:10065800093FE5192430FF12094B7FC412093FE511
:100668001A2430FF12094B7FC512093F7F2E120949
:100678004B7FC612093FE51B2430FF12094B7FC789
:1006880012093F7F5212094B7FC812093F7F481257
:05069800094B02059270
:04044F008E308F312B
:1004530078327C007D007BFF7A0979727E007F050C
:10046300120390C3E53064809480501A7F80120990
:100473003F7F2D12094BE531153170021530633181
:10048300FF6330FF800A7F8012093F7F2B12094BE5
:10049300AC30AD31EC1202068F3A8E398D388C3781
:1004A300E4FFFE7DC87C40AB3AAA39A938A83712CD
:1004B30000FBE4FBFAF9783F12000A12023F8E3088
:1004C3008F31AE30AF317C277D1012040B8F32AEEB
:1004D30030AF317C277D1012040B7E037FE8CFCD34
:1004E300CFCECCCE12040B8F33AE30AF317C037D35
:1004F300E812040B7E007F64CFCDCFCECCCE1204A6
:100503000B8F34AE30AF317C007D6412040B7E0060
:100513007F0ACFCDCFCECCCE12040B8F35AE30AF0A
:10052300317C007D0A12040B8D367F8212093FE570
:10053300322430FF12094B7F8312093FE533243005
:10054300FF12094B7F8412093FE5342430FF12095F
:100553004B7F8512093F7F2E12094B7F8612093F7D
:10056300E5352430FF12094B7F8712093FE5362416
:0505730030FF02094BFE
:1007DF00C2A78B807F017E00120808D2B47F057EEE
:1007EF0000120808C2B4EBC454F0F5807F017E00FC
:0907FF00120808D2B47F057E0047
:10080800D3EF9400EE9400400F7DC77C01DCFEDD41
:08081800FAEF1F70EB1E80E8EF
:0108200022B5
:0C093F00AB07C2B4C2B51207DFC2B4227D
:0C094B00AB07C2B4D2B51207DFC2B42261
:1008C8007F3212093F7F2812093F7F0C12093F7FB0
:0E08D8000612093F7F0112093F7F8002093F8F
:1008E600D3EF9400EE940040147D6E7C00ED1D70F5
:0D08F600011CED4C70F7EF1F70E61E80E353
:0109030022D1
:1008A100C2A27B46AF031BEF70FAD2A2E4FB30A2D7
:1008B100130BEBD3940540037F00227F017E0012CE
:0608C10008E680EA7F0159
:0108C700220E
:0C0821001208A17F017E001208E67FCCC7
:10082D00E4FBFAC2A20532E53270020531EF1392F4
:10083D00A2753100753206E5321532AC31700215F4
:10084D00314C70F3D2A2EFC313FF0BBB00010AEBC7
:05085D0064084A70CEA2
:010862002273
:100863007D087C00C2A20FBF0000D2A20FBF000010
:100873000FBF0000A2A2E433C43333335480FBE937
:10088300C3134BF97E007F04EF1FAA0670011E4AB3
:0D08930070F6ED1D70011CED4C70C9AF0139
:0108A0002235
:080962001208217F4402082D58
:08096A001208217FBE02082DD6
:10091B00E4FFFE12096212096A1208638F30120893
:06092B0063EFFEE530FF62
:0109310022A3
:100003000202ABE86480F8E933E83360110460F07E
:10001300ED33EC337009E8FCE9FDEAFEEBFF220463
:1000230060DED3EB9FEA9EE99DE8C2E78CF0C2F75E
:1000330095F0400CE8CCF8E9CDF9EACEFAEBCFFB2A
:1000430012027685D0F05804700320D5B3E804700B
:10005300075002B2D50202B592D5EC0460F7E4CCA6
:10006300C0E0C398F8603B94186008400DD0E0FBF3
:1000730002028DE4FBFAC9FC8028E830E406E4C9F7
:10008300FBE4CAFCE830E305E4C9CACBFCE8540747
:100093006010F8C3E913F9EA13FAEB13FBEC13FC52
:1000A300D8F130F52FC3E49CFCEF9BFFEE9AFEEDF5
:1000B30099FDD0E0FBEF4E4D4C701222DB030202A0
:1000C300B2EC2CFCEF33FFEE33FEED33FDED30E706
:1000D300EB02028DEF2BFFEE3AFEED39FDD0E0FB94
:1000E30050130BBB00030202B5ED13FDEE13FEEF3D
:0800F30013FFEC13FC02028D67
:1000FB00EC4D6011E8497017ED33EC3304600DE4FF
:10010B00FCFFFEFD22E933E8330470F80202AB1268
:10011B00027658046009E4CC248150062850090269
:10012B0002B52840030202B2C0E0EB4A7044B9802A
:10013B0006D0E0FB0202A1EF4E701CBD8008EBFF66
:10014B00EAFEE9FD80EBE98DF0A4FEE5F00201E4A7
:10015B00E9CDF9EAFEEBFFEF89F0A4FCE5F0CE89DF
:10016B00F0A42EFFE435F0CD89F0A42DFEE435F09C
:10017B008067EF4E7005BD80D780C3EF8BF0A4ACCA
:10018B00F0EE8BF0A42CFCE435F0F8EF8AF0A42C05
:10019B00E5F038FCE433CB8DF0A42CFCE5F03BF818
:1001AB00EE8AF0A42CFCE5F038F8E433CF89F0A408
:1001BB002CFCE5F038CF3400CE89F0A42FFFE5F00E
:1001CB003EFEE433C98DF0A42EFEE5F039CD8AF066
:1001DB00A42FFFE5F03EFEE43DFD33D0E0FB5007DE
:1001EB000BBB000F0202B5EC2CFCEF33FFEE33FE22
:0601FB00ED33FD02028D50
:1002010075F020800E75F010800575F0087D007E78
:10021100007F003392D530D503120441EC334010F6
:10022100EF33FFEE33FEED33FDEC33FCD5F0ED2281
:0E023100E5F0247EA2D513CC92E7CDCEFF22BD
:10023F00EDD2E7CD33EC3392D524814006E4FFFEB7
:10024F00FDFC22FCE4CFCECDCC24E0501174FF8016
:10025F00EDC3CC13CCCD13CDCE13CECF13CF0470B3
:07026F00F030D5DE0204416E
:10027600E9D2E7C933E833F892D5EDD2E7CD33ECCE
:0702860033FC5002B2D52247
:10028D00EC30E7100FBF000C0EBE00080DBD0004D2
:10029D000BEB6014A2D5EB13FCED92E7FD2274FF7E
:1002AD00FCFDFEFF22E480F8A2D574FF13FC7D80D7
:0302BD00E480EFEB
:1006A900020578E493A3F8E493A34003F68001F2EA
:1006B90008DFF48029E493A3F85407240CC8C33352
:1006C900C4540F4420C8834004F456800146F6DF21
:1006D900E4800B0102040810204080900957E47E51
:1006E900019360BCA3FF543F30E509541FFEE49316
:1006F900A360010ECF54C025E060A840B8E493A3DD
:10070900FAE493A3F8E493A3C8C582C8CAC583CA07
:10071900F0A3C8C582C8CAC583CADFE9DEE780BEBF
:010961000095
:1002C000E709F608DFFA8046E709F208DFFA803E20
:1002D00088828C83E709F0A3DFFA8032E309F6080D
:1002E000DFFA8078E309F208DFFA807088828C8375
:1002F000E309F0A3DFFA806489828A83E0A3F60829
:10030000DFFA805889828A83E0A3F208DFFA804C02
:1003100080D280FA80C680D4806980F280338010D9
:1003200080A680EA809A80A880DA80E280CA803342
:1003300089828A83ECFAE493A3C8C582C8CCC583BA
:10034000CCF0A3C8C582C8CCC583CCDFE9DEE7808A
:100350000D89828A83E493A3F608DFF9ECFAA9F009
:10036000EDFB2289828A83ECFAE0A3C8C582C8CC5F
:10037000C583CCF0A3C8C582C8CCC583CCDFEADE78
:10038000E880DB89828A83E493A3F208DFF980CCDA
:1003900088F0EF60010E4E60C388F0ED2402B404D3
:1003A0000050B9F582EB2402B4040050AF2323457A
:0603B0008223900310738C
:1003B600BC000BBE0029EF8DF084FFADF022E4CC2B
:1003C600F875F008EF2FFFEE33FEEC33FCEE9DECF4
:1003D600984005FCEE9DFE0FD5F0E9E4CEFD22ED3A
:1003E600F8F5F0EE8420D21CFEADF075F008EF2F84
:1003F600FFED33FD4007985006D5F0F222C398FD75
:050406000FD5F0EA2211
:10040B00C2D5EC30E709B2D5E4C39DFDE49CFCEE0C
:10041B0030E715B2D5E4C39FFFE49EFE1203B6C3CB
:10042B00E49DFDE49CFC80031203B630D507C3E4C6
:06043B009FFFE49EFE227B
:0E044100C3E49FFFE49EFEE49DFDE49CFC22CC
:00000001FF
